:100000000C9428010C9459010C9459010C94590139
:100010000C9459010C9459010C9459010C945901F8
:100020000C9459010C9459010C9459010C945901E8
:100030000C9459010C9459010C9459010C945901D8
:100040000C9459010C9459010C9459010C945901C8
:100050000C9459010C9459010C9459010C94DD0332
:100060000C9459010C9451040C9427040C945901DC
:100070000C9459010C9459010C9459010C94590198
:100080000C9459010C9459010C9459010C94590188
:100090000C9459010C9459010C9459010C94590178
:1000A0000C9459010C9459010C9459010C94590168
:1000B0000C9459010C9459010C9459010C94590158
:1000C0000C9459010C9459010C9459010C94590148
:1000D0000C9459010C9459010C9459010C94590138
:1000E0000C9459010C947B020C94E0010C94F201E5
:1000F0000C94E4010C9458020C94AF010C94EE01A2
:100100000C9467020C9487040C94C1020C94F601C1
:100110000C940E030C94CD010C94D6010C94C501E3
:100120000C9400020C94FC010C9489020C94DA01EA
:100130000C94AA010C94E8010C94C1010C94D00118
:100140000C942B020C94C90100000A0B02090C0D3F
:100150000E0807030401000000000000000000007A
:10016000000000000000000000000000000000008F
:10017000000000001211100000000000000000004C
:10018000000000000000000000000000000000006F
:100190002200250028002B002E003100340002012F
:1001A0000000050108010B010000210024002700C8
:1001B0002A002D0030003300010100000401070176
:1001C0000A010505050507050808080802020202DC
:1001D0000A0A0808040404040101010101010101E3
:1001E0000303030303030303040707070C0C0C0CAE
:1001F0000C0C0C0C02020202060606060606060697
:100200000B0B0B0B0B0B0B0B010210202008081023
:100210002040102040800201020108040201010276
:10022000040810204080804020100804020180044F
:1002300002018040201008040201080402010102AA
:100240000408102040800102040810204080870428
:1002500011241FBECFEFD1E2DEBFCDBF00E00CBF47
:1002600012E0A0E0B2E0E6E0FDE000E00BBF02C07B
:1002700007900D92AA35B107D9F723E0AAE5B2E0BD
:1002800001C01D92A835B207E1F711E0C8E2D1E044
:1002900000E006C021970109802FFE010E94790627
:1002A000C732D10780E00807A9F70E9438050C94EF
:1002B00081060C94000090E0FC01E85FFD4F249162
:1002C0008E539E4FFC018491882399F090E0880F13
:1002D000991FFC01E855FE4FA591B491FC01E2572E
:1002E000FE4F859194918FB7F894EC91E22BEC93AB
:1002F0008FBF0895282F30E0F901E85BFE4F9491FD
:10030000F901E85FFD4F44912E533E4FF9012491CE
:10031000222309F435C0992311F191509231F8F458
:10032000E92FF0E08827E856FE4F8F4F0C947906AE
:10033000C901CD01AA01C101C501AF01D001D6019A
:10034000DA01E001E401E801EE01F201AF01F6019A
:10035000FC010002809180008F7780938000E22F63
:10036000F0E0EE0FFF1FE257FE4FA591B4918FB75B
:10037000F894EC91611148C040954E234C938FBF87
:100380000895809180008F7DE8CF80918000877FE5
:10039000E4CF84B58F7784BDE2CF84B58F7DFBCF6A
:1003A0008091B0008F778093B000D9CF8091B0005A
:1003B0008F7DF9CF809190008F7780939000CFCF81
:1003C000809190008F7DF9CF80919000877FF5CF4D
:1003D0008091A0008F778093A000C1CF8091A00072
:1003E0008F7DF9CF8091A000877FF5CF809120018C
:1003F0008F7780932001B3CF809120018F7DF9CF3B
:1004000080912001877FF5CF4E2BB8CF3FB7F8946E
:1004100080915F0290916002A0916102B0916202AE
:1004200026B5A89B05C02F3F19F00196A11DB11D4F
:100430003FBFBA2FA92F982F8827BC01CD01620F8B
:10044000711D811D911D42E0660F771F881F991F46
:100450004A95D1F70895AF92BF92CF92DF92EF9273
:10046000FF920F931F93CF93DF936C017B018B015E
:10047000040F151FEB015E01AE18BF08C017D107AE
:1004800059F06991D601ED91FC910190F081E02D38
:10049000C6011995892B79F7C501DF91CF911F917D
:1004A0000F91FF90EF90DF90CF90BF90AF900895A5
:1004B000FC01538D448D252F30E0842F90E0821B6A
:1004C000930B541710F0CF96089501970895FC01EF
:1004D000918D828D981761F0A28DAE0FBF2FB11D47
:1004E0005D968C91928D9F5F9F73928F90E008959F
:1004F0008FEF9FEF0895FC01918D828D981731F059
:10050000828DE80FF11D858D90E008958FEF9FEFAC
:100510000895FC01918D228D892F90E0805C9F4F82
:10052000821B91098F739927089583E692E00E94B8
:10053000890221E0892B09F420E0822F0895FC0133
:10054000A48DA80FB92FB11DA35ABF4F2C91848D34
:1005500090E001968F739927848FA689B7892C9391
:10056000A089B1898C91837080648C93938D848DE4
:10057000981306C00288F389E02D80818F7D8083E7
:100580000895EF92FF920F931F93CF93DF93EC01A7
:1005900081E0888F9B8D8C8D98131AC0E889F9892A
:1005A000808185FF15C09FB7F894EE89FF8960832D
:1005B000E889F98980818370806480839FBF81E0AE
:1005C00090E0DF91CF911F910F91FF90EF900895F0
:1005D000F62E0B8D10E00F5F1F4F0F731127E02ECB
:1005E0008C8D8E110CC00FB607FCFACFE889F98903
:1005F000808185FFF5CFCE010E949F02F1CFEB8D68
:10060000EC0FFD2FF11DE35AFF4FF0829FB7F894D6
:100610000B8FEA89FB8980818062CFCFCF93DF93F4
:10062000EC01888D8823B9F0AA89BB89E889F9890A
:100630008C9185FD03C0808186FD0DC00FB607FC3F
:10064000F7CF8C9185FFF2CF808185FFEDCFCE0172
:100650000E949F02E9CFDF91CF91089580E090E062
:10066000892B29F00E94950281110E94000080E0F0
:1006700090E0892B49F080E090E0892B29F00E94DE
:10068000000081110E94000080E090E0892B49F079
:1006900080E090E0892B29F00E94000081110E94E7
:1006A000000080E090E0892B49F080E090E0892B09
:1006B00029F00E94000081110C9400000895CF924F
:1006C000DF92EF92FF920F931F93CF93DF931F92CE
:1006D0001F92CDB7DEB769834A83880F991F0091B7
:1006E000560310915703000F111FE0E0F3E09F0144
:1006F000205033402017310714F41192F8CF29818C
:10070000FC01E050FD4F21838A81808360E080916D
:1007100054030E947A011016110604F501501109C4
:10072000F801E050FD4FE080D0905203C09050039C
:1007300088E0F82E6E2D661F6627661F8C2D0E949E
:100740007A01EE0C61E08D2D0E947A0160E08D2D22
:100750000E947A01FA94F110EDCFDDCF61E0809133
:1007600054030F900F90DF91CF911F910F91FF9045
:10077000EF90DF90CF900C947A01EF92FF920F935D
:100780001F93CF937C018C0183E0000F111F8A958A
:10079000E1F7005F1C4FC1E0F80111928F0140E0CA
:1007A0006C2FC7010E945F03CF5FC930A9F7CF91BB
:1007B0001F910F91FF90EF9008951F920F920FB627
:1007C0000F9211242F933F938F939F93AF93BF93D7
:1007D00080915B0290915C02A0915D02B0915E02FB
:1007E00030915A0223E0230F2D3758F50196A11DB1
:1007F000B11D20935A0280935B0290935C02A093F8
:100800005D02B0935E0280915F0290916002A091C0
:100810006102B09162020196A11DB11D80935F0239
:1008200090936002A0936102B0936202BF91AF9176
:100830009F918F913F912F910F900FBE0F901F901E
:10084000189526E8230F0296A11DB11DD2CF1F9245
:100850000F920FB60F9211240BB60F922F933F9366
:100860004F935F936F937F938F939F93AF93BF93B8
:10087000EF93FF9383E692E00E949F02FF91EF9136
:10088000BF91AF919F918F917F916F915F914F91A8
:100890003F912F910F900BBE0F900FBE0F901F90A6
:1008A00018951F920F920FB60F9211240BB60F924C
:1008B0002F938F939F93EF93FF93E0917302F091A7
:1008C00074028081E0917902F0917A0282FD1DC06C
:1008D000908180917C028F5F8F7320917D028217BF
:1008E00041F0E0917C02F0E0ED59FD4F958F80934F
:1008F0007C02FF91EF919F918F912F910F900BBEF2
:100900000F900FBE0F901F9018958081F2CFCF935C
:10091000DF93109266021092650288EE93E0A0E0E9
:10092000B0E08093670290936802A0936902B0934D
:100930006A028CE492E0909364028093630285ECF7
:1009400090E09093700280936F0284EC90E090931B
:1009500072028093710280EC90E090937402809315
:10096000730281EC90E0909376028093750282ECA2
:1009700090E0909378028093770286EC90E09093D9
:100980007A028093790210927C0210927D0210927A
:100990007E0210927F02CBE0D0E0D0935103C0934F
:1009A00050038DE090E090935303809352038AE0CC
:1009B00090E0909355038093540381E090E09093EE
:1009C0005703809356038BE00E945B018091520392
:1009D0000E945B01809154030E945B0161E0809161
:1009E00054030E947A01D0935103C0935003E0E175
:1009F000F3E0119283E0E035F807D9F7D0E0C0E0EA
:100A00008091560390915703C817D90774F540E0B9
:100A10006FE0CE010E945F038091560390915703CF
:100A2000C817D9072CF447E06BE0CE010E945F03A2
:100A300040E069E0CE010E945F03809156039091EF
:100A40005703C817D9071CF4CE010E94BD0380913B
:100A5000560390915703C817D9072CF440E06CE077
:100A6000CE010E945F032196CBCFDF91CF910895F5
:100A7000789484B5826084BD84B5816084BD85B579
:100A8000826085BD85B5816085BD80916E00816085
:100A900080936E001092810080918100826080932B
:100AA000810080918100816080938100809180002D
:100AB0008160809380008091B10084608093B10058
:100AC0008091B00081608093B0008091910082603D
:100AD000809391008091910081608093910080913A
:100AE00090008160809390008091A100826080934B
:100AF000A1008091A10081608093A1008091A0005D
:100B000081608093A0008091210182608093210107
:100B10008091210181608093210180912001816079
:100B20008093200180917A00846080937A00809184
:100B30007A00826080937A0080917A00816080934D
:100B40007A0080917A00806880937A001092C100C8
:100B5000E0917302F091740282E08083E0916F0271
:100B6000F091700286E08083E0917102F091720250
:100B700092E8908310927B02E0917702F0917802E4
:100B80008083E0917502F09176028081806180839C
:100B9000E0917502F0917602808188608083E09117
:100BA0007502F0917602808180688083E091750201
:100BB000F091760280818F7D8083809156039091A1
:100BC00057031816190634F441E06CE090E080E019
:100BD0000E945F03809156039091570318161906DF
:100BE00034F44FE06AE090E080E00E945F0380917F
:100BF0005603909157031816190624F490E080E0EC
:100C00000E94BD03CEE18C2F0E945B018AE08C0F15
:100C10000E945B01CF5FC632B1F780E0C82E82E050
:100C2000D82E90EFE92E92E0F92ECEE160E08C2FE5
:100C30000E947A0108E210E0F801E851F140EE0D5F
:100C4000FF1D8081882321F061E0802F0E947A01BE
:100C50000F5F1F4F0033110579F70E9406024B0109
:100C60005C010E940602681979098A099B09683E9D
:100C7000734081059105A8F361E08C2F0E947A01F1
:100C800010E000E0F601E00FF11F8081882329F0D9
:100C900060E088E2800F0E947A010F5F1F4F0830EA
:100CA000110581F7CF5F88E0C80ED11C28E0E20E65
:100CB000F11CC63209F0BACFC1E0D0E080915603F2
:100CC00090915703181619066CF4FE01E15CFD4F74
:100CD0004081FE01E050FD4F47876C2F90E080E09F
:100CE0000E945F032196C930D10541F70E942E036F
:100CF00089CFEE0FFF1F881F8BBF0790F691E02D65
:060D00001994F894FFCFE6
:100D060001010101010101010000000000000000D5
:100D160000000000000000000000000000000000CD
:100D260000000000000000000000000000000000BD
:100D360000000000000000000000000000000000AD
:100D4600006699818142241800000000C1022B022E
:0A0D560058020E03890267027B02B7
:00000001FF
