:100000000C9435010C9466010C9466010C94660105
:100010000C9466010C9466010C9466010C946601C4
:100020000C9466010C9466010C9466010C946601B4
:100030000C9466010C9466010C9466010C946601A4
:100040000C9466010C9466010C9466010C94660194
:100050000C9466010C9466010C9466010C94D20316
:100060000C9466010C9446040C941C040C946601D8
:100070000C9466010C9466010C9466010C94660164
:100080000C9466010C9466010C9466010C94660154
:100090000C9466010C9466010C9466010C94660144
:1000A0000C9466010C9466010C9466010C94660134
:1000B0000C9466010C9466010C9466010C94660124
:1000C0000C9466010C9466010C9466010C94660114
:1000D0000C9466010C9466010C9466010C94660104
:1000E0000C9466010C94C0010C94D5010C94DD01B4
:1000F0000C94EA010C94F4010C9402020C940A0290
:100100000C94BD020C9406020C9417030C94640327
:100110000C94FC010C9474060C94E1010C94AE0256
:100120000C9481020C94D1020C94EE010C94DF0229
:100130000C94C5010C94D9010C94F8010C94E401C1
:100140000C9414020C9410020000200023002600DE
:1001500029002C002F0032000001000003010601DD
:10016000090100000A0B02090C0D0E080703040127
:10017000000000000000000000000000000000007F
:10018000000000000000000000000000000012114C
:10019000100000000000000000000000000000004F
:1001A00000000000000000000000220025002800E0
:1001B0002B002E003100340002010000050108016F
:1001C0000B0100002100240027002A002D00300030
:1001D000330001010000040107010A0105050505BE
:1001E000070508080808020202020A0A08080404AF
:1001F00004040101010101010101030303030303DD
:100200000303040707070C0C0C0C0C0C0C0C02026B
:10021000020206060606060606060B0B0B0B0B0B68
:100220000B0B0102102020080810204010204080F5
:1002300002010201080402010102040810204080AA
:100240008040201008040201800402018040201038
:100250000804020108040201010204081020408081
:100260000102040810204080740611241FBECFEF45
:10027000D1E2DEBFCDBF00E00CBF14E0A0E0B2E0F1
:10028000E6E5FDE000E00BBF02C007900D92A83349
:10029000B107D9F724E0A8E3B4E001C01D92A93E5C
:1002A000B207E1F711E0C5E3D1E000E006C0219715
:1002B0000109802FFE010E94A106C433D10780E00E
:1002C0000807A9F70E947C040C94A9060C9400006E
:1002D000CF93DF9390E0FC01EE5DFD4F24918452BB
:1002E0009E4FFC0184918823C1F090E0880F991FF4
:1002F000FC01EE53FE4FC591D491FC01E855FE4F31
:10030000A591B4919FB7F8943881822F809583236B
:100310008883EC91E22BEC939FBFDF91CF910895FE
:10032000282F30E0F901EE59FE4F9491F901EE5D6E
:10033000FD4F449124523E4FF9012491222309F4A8
:1003400077C0992311F191509231F8F4E92FF0E040
:100350008827E255FE4F8F4F0C94A106DD01E10185
:10036000C001D501D901C501E401EA01EE01F401A2
:10037000F801FC0102020602C5010A021002140281
:10038000809180008F7780938000E22FF0E0EE0F65
:10039000FF1FE85BFE4FA591B491EC91E42381E04F
:1003A00090E009F047C080E00895809180008F7D43
:1003B000EACF80918000877FE6CF84B58F7784BDB8
:1003C000E4CF84B58F7DFBCF8091B0008F77809391
:1003D000B000DBCF8091B0008F7DF9CF809190008D
:1003E0008F7780939000D1CF809190008F7DF9CF4F
:1003F00080919000877FF5CF8091A0008F778093C8
:10040000A000C3CF8091A0008F7DF9CF8091A00084
:10041000877FF5CF809120018F7780932001B5CF22
:10042000809120018F7DF9CF80912001877FF5CFCA
:1004300080E090E008953FB7F8948091480490914F
:100440004904A0914A04B0914B0426B5A89B05C06D
:100450002F3F19F00196A11DB11D3FBFBA2FA92F43
:10046000982F8827BC01CD01620F711D811D911D40
:1004700042E0660F771F881F991F4A95D1F70895AC
:100480008F929F92AF92BF92CF92DF92EF92FF92A4
:100490000E941B024B015C0182E3C82ED12CE12C8F
:1004A000F12C0E941B02681979098A099B09683E90
:1004B000734081059105A8F321E0C21AD108E10833
:1004C000F10888EE880E83E0981EA11CB11CC114AF
:1004D000D104E104F10429F7FF90EF90DF90CF9071
:1004E000BF90AF909F908F9008952FB7F894609130
:1004F00044047091450480914604909147042FBFB5
:100500000895AF92BF92CF92DF92EF92FF920F9336
:100510001F93CF93DF936C017B018B01040F151F99
:10052000EB015E01AE18BF08C017D10759F0699101
:10053000D601ED91FC910190F081E02DC601199555
:10054000892B79F7C501DF91CF911F910F91FF9012
:10055000EF90DF90CF90BF90AF900895FC01538D46
:10056000448D252F30E0842F90E0821B930B54178D
:1005700010F0CF96089501970895FC01918D828D1A
:10058000981761F0A28DAE0FBF2FB11D5D968C91B3
:10059000928D9F5F9F73928F90E008958FEF9FEFF2
:1005A0000895FC01918D828D981731F0828DE80FAE
:1005B000F11D858D90E008958FEF9FEF0895FC0168
:1005C000918D228D892F90E0805C9F4F821B910935
:1005D0008F73992708958CE494E00E94DF0221E054
:1005E000892B09F420E0822F0895FC01A48DA80F27
:1005F000B92FB11DA35ABF4F2C91848D90E0019665
:100600008F739927848FA689B7892C93A089B18984
:100610008C91837080648C93938D848D981306C025
:100620000288F389E02D80818F7D80830895EF9289
:10063000FF920F931F93CF93DF93EC0181E0888F9C
:100640009B8D8C8D98131AC0E889F989808185FF6C
:1006500015C09FB7F894EE89FF896083E889F9890E
:1006600080818370806480839FBF81E090E0DF9110
:10067000CF911F910F91FF90EF900895F62E0B8D63
:1006800010E00F5F1F4F0F731127E02E8C8D8E111E
:100690000CC00FB607FCFACFE889F989808185FF85
:1006A000F5CFCE010E94F502F1CFEB8DEC0FFD2FBF
:1006B000F11DE35AFF4FF0829FB7F8940B8FEA8940
:1006C000FB8980818062CFCFCF93DF93EC01888D4F
:1006D0008823B9F0AA89BB89E889F9898C9185FDBD
:1006E00003C0808186FD0DC00FB607FCF7CF8C914B
:1006F00085FFF2CF808185FFEDCFCE010E94F5020C
:10070000E9CFDF91CF91089580E090E0892B29F027
:100710000E94EB0281110E94000080E090E0892B92
:1007200049F080E090E0892B29F00E9400008111BF
:100730000E94000080E090E0892B49F080E090E08A
:10074000892B29F00E94000081110E94000080E0A6
:1007500090E0892B49F080E090E0892B29F00E94FD
:10076000000081110C9400000895CF93DF93FC01E9
:1007700001900020E9F73197AF01481B590BBC01EC
:100780008CE494E00E948102EC0142E050E062E1DE
:1007900072E08CE494E00E9481028C0F9D1FDF9137
:1007A000CF9108951F920F920FB60F9211242F939D
:1007B0003F938F939F93AF93BF9380914404909105
:1007C0004504A0914604B09147043091430423E0CE
:1007D000230F2D3758F50196A11DB11D2093430419
:1007E0008093440490934504A0934604B093470437
:1007F0008091480490914904A0914A04B0914B041F
:100800000196A11DB11D8093480490934904A093C3
:100810004A04B0934B04BF91AF919F918F913F9148
:100820002F910F900FBE0F901F90189526E8230F61
:100830000296A11DB11DD2CF1F920F920FB60F923B
:1008400011240BB60F922F933F934F935F936F93A7
:100850007F938F939F93AF93BF93EF93FF938CE41A
:1008600094E00E94F502FF91EF91BF91AF919F91AB
:100870008F917F916F915F914F913F912F910F9049
:100880000BBE0F900FBE0F901F9018951F920F92E6
:100890000FB60F9211240BB60F922F938F939F9345
:1008A000EF93FF93E0915C04F0915D048081E0910F
:1008B0006204F091630482FD1DC090818091650403
:1008C0008F5F8F7320916604821741F0E091650479
:1008D000F0E0E45BFB4F958F80936504FF91EF910F
:1008E0009F918F912F910F900BBE0F900FBE0F9085
:1008F0001F9018958081F2CF789484B5826084BD72
:1009000084B5816084BD85B5826085BD85B5816013
:1009100085BD80916E00816080936E001092810091
:10092000809181008260809381008091810081604C
:10093000809381008091800081608093800080910D
:10094000B10084608093B1008091B0008160809399
:10095000B00080919100826080939100809191001D
:1009600081608093910080919000816080939000DD
:100970008091A10082608093A1008091A10081609C
:100980008093A1008091A00081608093A00080915D
:1009900021018260809321018091210181608093F7
:1009A00021018091200181608093200180917A0053
:1009B000846080937A0080917A00826080937A00CC
:1009C00080917A00816080937A0080917A008068BB
:1009D00080937A001092C100E0915C04F0915D0474
:1009E00082E08083E0915804F091590486E080838E
:1009F000E0915A04F0915B0492E8908310926404B1
:100A0000E0916004F09161048083E0915E04F091D4
:100A10005F04808180618083E0915E04F0915F04D7
:100A2000808188608083E0915E04F0915F04808122
:100A300080688083E0915E04F0915F0480818F7D07
:100A4000808385E00E94680186E00E94680187E05B
:100A50000E9468010E94750202E010E0C1E0D0E04F
:100A6000FF24F394809141049091420481309105D8
:100A700009F45EC08230910509F4ABC0892B09F0FE
:100A800049C085E192E00E94B50386E00E94900192
:100A9000892B09F042C00E94750280903804909022
:100AA0003904A0903A04B0903B04681979098A0986
:100AB0009B09683B7B4081059105B0F00E9475025F
:100AC000609338047093390480933A0490933B0404
:100AD000D0934204C09341048FE492E00E94B50396
:100AE00084E792E00E94B50385E00E949001892B83
:100AF00031F485E992E00E94B5030E94400287E04C
:100B00000E949001892B31F489EC92E00E94B50398
:100B10000E9440020E948403A5CF0E947502609348
:100B200038047093390480933A0490933B04DCCFEB
:100B30008DEF92E00E94B50386E00E949001892B20
:100B4000E9F50E9475028090380490903904A090D5
:100B50003A04B0903B04681979098A099B09683BFB
:100B60007B4081059105B0F00E94750260933804C6
:100B70007093390480933A0490933B041093420499
:100B80000093410485E393E00E94B50384E792E07B
:100B90000E94B50385E00E949001892B31F481E623
:100BA00093E00E94B5030E94400287E00E949001FA
:100BB000892B09F0AFCF8FE693E0A8CF0E94750292
:100BC000609338047093390480933A0490933B0403
:100BD000E1CF8DE793E00E94B50386E00E9490018B
:100BE00020914004892B09F079C0211120C00E9476
:100BF000750260933C0470933D0480933E0490938F
:100C00003F04F092400485E00E949001892B31F46A
:100C100087E194E00E94B5030E94400287E00E94B1
:100C20009001892B09F076CF88E294E06FCF0E9483
:100C3000750280903C0490903D04A0903E04B090DA
:100C40003F04681979098A099B09683B7B40810543
:100C50009105C8F00E9475026093380470933904BE
:100C600080933A0490933B04109242041092410402
:100C70001092400480ED93E00E94B50384E792E077
:100C80000E94B503C0CF0E947502809038049090F6
:100C90003904A0903A04B0903B04681979098A0994
:100CA0009B09603D77408105910508F4ACCF0E9417
:100CB0007502609338047093390480933A049093DA
:100CC0003B04D0934204C09341041092400487EE49
:100CD00093E00E94B50386EF93E0D2CF222309F47C
:100CE00092CF109240048FCFECE4F4E01382128292
:100CF00088EE93E0A0E0B0E084839583A683B78379
:100D000084E092E09183808385EC90E095878487EE
:100D100084EC90E09787868780EC90E0918B808BC5
:100D200081EC90E0938B828B82EC90E0958B848BAE
:100D300086EC90E0978B868B118E128E138E148E1C
:100D40000895EE0FFF1F881F8BBF0790F691E02DCF
:060D50001994F894FFCF96
:100D56000000000017038102AE026403DF02BD0239
:100D6600D1020D0A0052756E6E696E672074686551
:100D7600207465787420696E2061206C6F6F702C0A
:100D86002077616974696E6720666F722061206ED4
:100D9600657720696E737472756374696F6E004946
:100DA6004E495420627574746F6E207761732063A8
:100DB60068616E67656420746F2067616D65206D7C
:100DC6006F646500427574746F6E204D6964646C5F
:100DD600652068656C6420666F72203320736563D6
:100DE6006F6E6473004368616E6765207468652082
:100DF6006D6F7665206F6620746865206C6F6F7006
:100E060020746578742066726F6D206C6566742038
:100E1600746F207269676874004368616E67652045
:100E2600746865206D6F7665206F6620746865202E
:100E36006C6F6F7020746578742066726F6D2072A7
:100E46006967687420746F206C6566740052756EED
:100E56006E696E67207468652067616D652C207702
:100E6600616974696E6720746F206D6F7665206F97
:100E76007220636F6E66696775726174696F6E2042
:100E86006D6F646500494E495420627574746F6EC7
:100E960020776173206368616E67656420746F20D4
:100EA600636F6E6669677572617465206D6F6465E0
:100EB600004D4F564520544F204C45465421004D79
:100EC6004F564520544F2052494748540052756E9C
:100ED6006E696E672074686520636F6E66696775F4
:100EE600726174696F6E2073637265656E2C20770C
:100EF600616974696E6720746F20736565206C691B
:100F0600666573206F72206368616E676520766F11
:100F16006C756D656E206F722072657475726E00E9
:100F26005448452047414D45205741532043414EA3
:100F360043454C45442100524553554D494E4720A3
:100F460047414D452100427574746F6E204D6964AA
:100F5600646C652068656C6420666F72203220734D
:100F660065636F6E6473005245414D494E494E4765
:100F7600204C4946455321004348414E474520569B
:080F86004F4C554D454E210072
:00000001FF
