:100000000C9435010C9466010C9466010C94660105
:100010000C9466010C9466010C9466010C946601C4
:100020000C9466010C9466010C9466010C946601B4
:100030000C9466010C9466010C9466010C946601A4
:100040000C9466010C9466010C9466010C94660194
:100050000C9466010C9466010C9466010C94DD0509
:100060000C9466010C9451060C9427060C946601BE
:100070000C9466010C9466010C9466010C94660164
:100080000C9466010C9466010C9466010C94660154
:100090000C9466010C9466010C9466010C94660144
:1000A0000C9466010C9466010C9466010C94660134
:1000B0000C9466010C9466010C9466010C94660124
:1000C0000C9466010C9466010C9466010C94660114
:1000D0000C9466010C9466010C9466010C94660104
:1000E0000C9466010C94BB020C94F7020C949E03D2
:1000F0000C94C6010C9419030C94E8020C94900122
:100100000C940B030C949B010C94B3010C9486018A
:100110000C9498010C9487060C948C010C94C101EA
:100120000C9451030C94CB010C94AB010C94B901C9
:100130000C9494010C94A5010C94BD010C94A101A4
:100140000C94C7010C94AF0100002100240027008B
:100150002A002D00300033000101000004010701D6
:100160000A0100002200250028002B002E0031008B
:10017000340002010000050108010B01000020000D
:100180002300260029002C002F003200000100006F
:10019000030106010901050505050705080808080A
:1001A000020202020A0A080804040404010101010F
:1001B000010101010303030303030303040707070A
:1001C0000C0C0C0C0C0C0C0C0202020206060606AF
:1001D000060606060B0B0B0B0B0B0B0B010210207C
:1001E000200808102040102040800201020108046D
:1001F0000201010204081020408080402010080401
:100200000201800402018040201008040201080459
:10021000020101020408102040800102040810209D
:10022000408000000A0B02090C0D0E0807030401B0
:1002300000000000000000000000000000000000BE
:10024000000000000000000000000000000012118B
:10025000100000000000000000000000000000008E
:100260000000000000000000870611241FBECFEF31
:10027000D1E2DEBFCDBF00E00CBF18E0A0E0B2E0ED
:10028000EEEAF5E100E00BBF02C007900D92A2314B
:10029000B107D9F72BE0A2E1B8E001C01D92AC3460
:1002A000B207E1F711E0C5E3D1E000E006C0219715
:1002B0000109802FFE010E94CD0AC433D10780E0DE
:1002C0000807A9F70E9480070C94D50A0C94000037
:1002D0008150823108F05AC0E82FF0E08827EC58AE
:1002E000FE4F8F4F0C94CD0A9401980186018C012A
:1002F0009001C6019B01A101A501AB01AF01B301B2
:10030000B901BD01C601C101C701CB0180918000C7
:100310008F77809380000895809180008F7DF9CF42
:1003200080918000877FF5CF84B58F7784BD089555
:1003300084B58F7DFBCF8091B0008F778093B00024
:1003400008958091B0008F7DF9CF809190008F77D4
:10035000809390000895809190008F7DF9CF8091D7
:100360009000877FF5CF8091A0008F778093A000C9
:1003700008958091A0008F7DF9CF8091A000877FA4
:10038000F5CF809120018F7780932001089580918F
:1003900020018F7DF9CF80912001877FF5CFCF930A
:1003A000DF93282F30E0F901EE5DFD4F8491F901D4
:1003B000E452FE4FD491F901EA56FE4FC491CC238A
:1003C000A1F081110E946801EC2FF0E0EE0FFF1FF9
:1003D000E458FE4FA591B491EC91ED2381E090E0BB
:1003E00009F480E0DF91CF91089580E090E0FACFAA
:1003F0001F93CF93DF93282F30E0F901EE5DFD4F7F
:100400008491F901E452FE4FD491F901EA56FE4F6E
:10041000C491CC23A9F0162F81110E946801EC2F02
:10042000F0E0EE0FFF1FEE59FE4FA591B4918FB78C
:10043000F894EC91111108C0D095DE23DC938FBFA6
:10044000DF91CF911F910895DE2BF8CFCF93DF93EB
:1004500090E0FC01E452FE4F24918A569E4FFC012D
:1004600084918823D1F090E0880F991FFC01E85B0C
:10047000FE4FA591B491FC01EE59FE4FC591D49168
:10048000623071F49FB7F8943C91822F809583235A
:100490008C93E8812E2B28839FBFDF91CF91089505
:1004A0008FB7F894EC912E2B2C938FBFF6CF3FB7DC
:1004B000F8948091A5089091A608A091A708B09102
:1004C000A80826B5A89B05C02F3F19F00196A11DCD
:1004D000B11D3FBFBA2FA92F982F8827BC01CD018E
:1004E000620F711D811D911D42E0660F771F881FED
:1004F000991F4A95D1F708958F929F92AF92BF921C
:10050000CF92DF92EF92FF926B017C010E94570223
:100510004B015C01C114D104E104F104B9F00E9463
:100520005702681979098A099B09683E7340810559
:10053000910580F321E0C21AD108E108F10888EEA4
:10054000880E83E0981EA11CB11CE4CFFF90EF90B1
:10055000DF90CF90BF90AF909F908F9008952FB76E
:10056000F8946091A1087091A2088091A3089091DD
:10057000A4082FBF0895AF92BF92CF92DF92EF925F
:10058000FF920F931F93CF93DF936C017B018B013D
:10059000040F151FEB015E01AE18BF08C017D1078D
:1005A00059F06991D601ED91FC910190F081E02D17
:1005B000C6011995892B79F7C501DF91CF911F915C
:1005C0000F91FF90EF90DF90CF90BF90AF90089584
:1005D000FC01538D448D252F30E0842F90E0821B49
:1005E000930B541710F0CF96089501970895FC01CE
:1005F000918D828D981761F0A28DAE0FBF2FB11D26
:100600005D968C91928D9F5F9F73928F90E008957D
:100610008FEF9FEF0895FC01918D828D981731F037
:10062000828DE80FF11D858D90E008958FEF9FEF8B
:100630000895FC01918D228D892F90E0805C9F4F61
:10064000821B91098F739927089589EA98E00E9487
:10065000190321E0892B09F420E0822F0895FC0181
:10066000A48DA80FB92FB11DA35ABF4F2C91848D13
:1006700090E001968F739927848FA689B7892C9370
:10068000A089B1898C91837080648C93938D848DC3
:10069000981306C00288F389E02D80818F7D8083C6
:1006A0000895EF92FF920F931F93CF93DF93EC0186
:1006B00081E0888F9B8D8C8D98131AC0E889F98909
:1006C000808185FF15C09FB7F894EE89FF8960830C
:1006D000E889F98980818370806480839FBF81E08D
:1006E00090E0DF91CF911F910F91FF90EF900895CF
:1006F000F62E0B8D10E00F5F1F4F0F731127E02EAA
:100700008C8D8E110CC00FB607FCFACFE889F989E1
:10071000808185FFF5CFCE010E942F03F1CFEB8DB5
:10072000EC0FFD2FF11DE35AFF4FF0829FB7F894B5
:100730000B8FEA89FB8980818062CFCFCF93DF93D3
:10074000EC01888D8823B9F0AA89BB89E889F989E9
:100750008C9185FD03C0808186FD0DC00FB607FC1E
:10076000F7CF8C9185FFF2CF808185FFEDCFCE0151
:100770000E942F03E9CFDF91CF91089580E090E0B0
:10078000892B29F00E94250381110E94000080E03E
:1007900090E0892B49F080E090E0892B29F00E94BD
:1007A000000081110E94000080E090E0892B49F058
:1007B00080E090E0892B29F00E94000081110E94C6
:1007C000000080E090E0892B49F080E090E0892BE8
:1007D00029F00E94000081110C9400000895CF932D
:1007E000DF93A0911208B0911308AD014C5D5D4FED
:1007F00024E138E090E080E0E901C80FD91FBC0196
:100800006A0F7B1FFA01E80FF91F6F3871052CF092
:10081000FC01EF58F109E40FF51F60816883019630
:100820008031910549F741575F4F205F3F4F88E086
:1008300024393807F9F6DF91CF9108950E94EF032C
:10084000809112089091130801968E38910529F035
:100850009093130880931208089510921308109231
:10086000120808954F925F926F927F928F929F929B
:10087000AF92BF92CF92DF92EF92FF920F931F93AE
:10088000CF93DF931F921F92CDB7DEB78C014983C0
:100890002A83660F771FF801EA5AFF4FE080F18044
:1008A000EE0CFF1CF801CF01801B910B8E159F05EC
:1008B00014F41192F8CF8981F801E60FF71F8183B4
:1008C0008A818083680184E5C80ED11C60E0F6014E
:1008D00080810E94F8015801F2E5AF0EB11C480179
:1008E00080E5880E911C1E141F040CF5E1E0EE1A41
:1008F000F108F801EE0DFF1D6080F5015080F40154
:10090000408088E0782E662D661F6627661F842D3E
:100910000E94F801660C61E0852D0E94F80160E0FC
:10092000852D0E94F8017A947110EDCFDCCF61E043
:10093000F60180810F900F90DF91CF911F910F9161
:10094000FF90EF90DF90CF90BF90AF909F908F90EF
:100950007F906F905F904F900C94F8012F923F9290
:100960004F925F926F927F928F929F92AF92BF92BF
:10097000CF92DF92EF92FF920F931F93CF93DF936B
:10098000CDB7DEB7C058D1090FB6F894DEBF0FBEA1
:10099000CDBF6E0121E4C20ED11CDE0111963D01D6
:1009A0005E01B1E8AB0EB11CB301A601FC0130E061
:1009B00020E0F1908A01020F131FD801FC928B01F5
:1009C000020F131FF780D801FC922F5F3F4F283092
:1009D000310579F74096485F5F4F685F7F4F4A1552
:1009E0005B0521F70091CE0A1091CF0A1801B0E102
:1009F0002B0E311C78012801E2E24E0E511C60E002
:100A0000D70112968C910E94F8014601B8E08B0E36
:100A1000911C5801F60181916F01882331F061E04A
:100A2000D50152968C910E94F801B2E0AB0EB11C38
:100A30008C149D0479F7F80160817181072E000CF8
:100A4000880B990B0E947C0261E0D70112968C9171
:100A50000E94F8015801B2E1AB0EB11CF501808192
:100A6000F2E0AF0EB11C60E00E94F8014A145B0492
:100A7000A9F722E0E20EF11CE214F30409F0BFCF63
:100A800010E000E080E8C82ED12CF12CE12CBB2432
:100A9000B394B00E8091D00A9091D10AFC01EA5A29
:100AA000FF4F2081318112161306CCF496010E2CD3
:100AB00002C0359527950A94E2F7FC01E00FF11F7B
:100AC0004089D301AE0DBF1D5C91552389F1242BC4
:100AD000208B20894B2D70E060E00E9432043FEFB4
:100AE000E31AF30A88E0E816F104A1F60F5F1F4F3E
:100AF00098E0690E711C0830110539F6C058DF4FB7
:100B00000FB6F894DEBF0FBECDBFDF91CF911F911E
:100B10000F91FF90EF90DF90CF90BF90AF909F909C
:100B20008F907F906F905F904F903F902F9008959F
:100B300020952423CDCFCF92DF92EF92FF921F9387
:100B4000CF93DF937C016B01EB0183E0CC0FDD1FC2
:100B50008A95E1F76096CE0DDF1D11E0199220E035
:100B6000412FB601C7010E9432041F5F1930B1F74F
:100B7000DF91CF911F91FF90EF90DF90CF9008957C
:100B8000CF93DF93FC0101900020E9F73197AF018B
:100B9000481B590BBC0189EA98E00E94BB02EC019A
:100BA00042E050E06EEA76E089EA98E00E94BB02FB
:100BB0008C0F9D1FDF91CF9108951F920F920FB65A
:100BC0000F9211242F933F938F939F93AF93BF93D3
:100BD0008091A1089091A208A091A308B091A408C7
:100BE0003091A00823E0230F2D3758F50196A11D61
:100BF000B11D2093A0088093A1089093A208A09310
:100C0000A308B093A4088091A5089091A608A0918C
:100C1000A708B091A8080196A11DB11D8093A50851
:100C20009093A608A093A708B093A808BF91AF918E
:100C30009F918F913F912F910F900FBE0F901F901A
:100C4000189526E8230F0296A11DB11DD2CF1F9241
:100C50000F920FB60F9211240BB60F922F933F9362
:100C60004F935F936F937F938F939F93AF93BF93B4
:100C7000EF93FF9389EA98E00E942F03FF91EF9191
:100C8000BF91AF919F918F917F916F915F914F91A4
:100C90003F912F910F900BBE0F900FBE0F901F90A2
:100CA00018951F920F920FB60F9211240BB60F9248
:100CB0002F938F939F93EF93FF93E091B908F09157
:100CC000BA088081E091BF08F091C00882FD1DC084
:100CD00090818091C2088F5F8F732091C308821723
:100CE00041F0E091C208F0E0E755F74F958F80930F
:100CF000C208FF91EF919F918F912F910F900BBEA2
:100D00000F900FBE0F901F9018958081F2CFCF9358
:100D1000DF931092AC081092AB0888EE93E0A0E04D
:100D2000B0E08093AD089093AE08A093AF08B09365
:100D3000B00880EA96E09093AA088093A90885EC11
:100D400090E09093B6088093B50884EC90E090937F
:100D5000B8088093B70880EC90E09093BA0880932D
:100D6000B90881EC90E09093BC088093BB0882ECBA
:100D700090E09093BE088093BD0886EC90E090933D
:100D8000C0088093BF081092C2081092C308109246
:100D9000C4081092C50881E090E090932B0B8093DB
:100DA0002A0BE4E1F2E0ACE2BBE0C4E0D2E08191E6
:100DB00091918D939D93899199911F969C938E9378
:100DC0001E9782E0E432F80791F7CBE0D0E0D093B1
:100DD000230BC093220B8DE090E09093250B809322
:100DE000240B8AE090E09093270B8093260B81E000
:100DF00090E09093290B8093280B61E08BE00E9498
:100E0000260261E08091240B0E94260261E080911D
:100E1000260B0E94260261E08091260B0E94F801B9
:100E2000D093230BC093220BE2EEFAE082E29BE028
:100E300011928E179F07E1F7D0E0C0E08091280B58
:100E40009091290BC817D907C4F520E04FE0BE01E7
:100E500082ED9AE00E9432048091280B9091290B38
:100E6000C817D9073CF427E04BE0BE0182ED9AE0B9
:100E70000E94320420E049E0BE0182ED9AE00E9427
:100E800032048091280B9091290BC817D9072CF4B4
:100E9000BE0182ED9AE00E949B058091280B909103
:100EA000290BC817D9073CF420E04CE0BE0182EDC5
:100EB0009AE00E9432042196C1CF8AE29BE090938F
:100EC000CF0A8093CE0A82ED9AE09093D10A809364
:100ED000D00A0E94AF026093CA0A7093CB0A809333
:100EE000CC0A9093CD0A83E090E0909347098093D9
:100EF00046091092490910924809DF91CF9108954F
:100F0000CF93DF93CDB7DEB72C970FB6F894DEBF43
:100F10000FBECDBF789484B5826084BD84B58160F6
:100F200084BD85B5826085BD85B5816085BD8091B4
:100F30006E00816080936E0010928100809181002C
:100F40008260809381008091810081608093810024
:100F5000809180008160809380008091B1008460E6
:100F60008093B1008091B00081608093B000809147
:100F700091008260809391008091910081608093C4
:100F80009100809190008160809390008091A100F9
:100F900082608093A1008091A10081608093A10074
:100FA0008091A00081608093A000809121018260E7
:100FB00080932101809121018160809321018091A2
:100FC000200181608093200180917A008460809369
:100FD0007A0080917A00826080937A0080917A0012
:100FE000816080937A0080917A00806880937A0093
:100FF0001092C100E091B908F091BA0882E08083B4
:10100000E091B508F091B6081082E091B708F09130
:10101000B8088FEC80831092C108E091BD08F09170
:10102000BE0886E08083E091BB08F091BC08808117
:1010300080618083E091BB08F091BC08808188606A
:101040008083E091BB08F091BC0880818068808338
:10105000E091BB08F091BC0880818F7D808362E0C5
:1010600085E00E94260262E086E00E94260262E09D
:1010700087E00E942602E090CE0AF090CF0A870116
:101080000E5F1F4F22E1E20EF11CF80180810E5F1E
:101090001F4F61E00E94260261E0F80186850E94F0
:1010A00026020E151F0589F78091D00A9091D10A6A
:1010B000FC01EA5AFF4F208131811216130634F4E5
:1010C00021E04CE070E060E00E9432048091D00AA0
:1010D0009091D10AFC01EA5AFF4F2081318112160A
:1010E000130634F428E04AE070E060E00E94320425
:1010F0008091D00A9091D10AFC01EA5AFF4F2081D9
:1011000031811216130624F470E060E00E949B0502
:1011100086E499E030E020E0F901EE0FFF1FE80FD0
:10112000F91F158214822F5F3F4F20313105A1F73F
:101130008096FAE086349F0769F786E499E0BE015D
:101140006F5F7F4FAE01495F5F4FFC0128E030E0E9
:101150007583648357834683215031093496211562
:101160003105B1F7809629E0863C920771F70E941D
:101170001E04442443945524539492E0692E712C08
:1011800001E010E02EE8A22EB12C80919E089091F3
:101190009F088130910509F4D4C08230910509F48B
:1011A0005FC1892B09F093C0C090CA0AD090CB0AC6
:1011B000E090CC0AF090CD0A8091940881118AC009
:1011C00084E198E00E94AE040E94AF026C197D0990
:1011D0008E099F09653671058105910560F00E94B1
:1011E000AF026093CA0A7093CB0A8093CC0A9093A3
:1011F000CD0A0E941E0485E00E94CF016C0186E0AA
:101200000E94CF014C0187E00E94CF017C01892818
:1012100009F08CC00E94AF02209195083091960889
:101220004091970850919808621B730B840B950BA3
:10123000683B7B4081059105C0F00E94AF0260933E
:101240009508709396088093970890939808109348
:101250009F0800939E0881EB96E00E94C00586EDF2
:1012600096E00E94C00510929408C114D10491F434
:101270008091020290910302019761F41092940808
:1012800087EF96E00E94C00562E370E080E090E0A6
:101290000E947C02E114F10491F48091000290918B
:1012A0000102019761F4509294088BE297E00E944A
:1012B000C00562E370E080E090E00E947C02D09282
:1012C0000302C0920202F0920102E09200020E9428
:1012D000BE035BCF84E198E00E94AE040E94AF029F
:1012E0006C197D098E099F09653671058105910587
:1012F00008F481CF0E94AF026093CA0A7093CB0AB0
:101300008093CC0A9093CD0A0E94EF03809112083B
:1013100090911308019728F0909313088093120876
:101320006ACFB0921308A092120865CF0E94AF0254
:101330006093950870939608809397089093980807
:1013400094CF66E479E09B0150E040E0FA01EE0FB3
:10135000FF1FE60FF71F0480F581E02DCA018C5FA7
:101360009E4F820F931FEF2B09F46CC0FC0140824B
:101370004F5F5F4F4031510549F7205F3F4F605E3F
:101380007F4FF9E0263C3F07F9F68AE49AE00E9495
:10139000AE0485E00E94CF016C0186E00E94CF017F
:1013A0004C0187E00E94CF017C01892809F04DC0E3
:1013B0000E94AF02209195083091960840919708BD
:1013C00050919808621B730B840B950B683B7B4014
:1013D00081059105B0F00E94AF026093950870936B
:1013E0009608809397089093980870929F0860924F
:1013F0009E088FE597E00E94C00586ED96E00E946A
:10140000C005C114D10481F48091020290910302BD
:10141000019751F48BE897E00E94C00562E370E009
:1014200080E090E00E947C02E114F10409F047CFD3
:101430008091000290910102019709F040CF89E963
:1014400097E035CFFC01108293CF0E94AF026093EA
:101450009508709396088093970890939808D1CF39
:1014600085E00E94CF016C0186E00E94CF014C0113
:1014700087E00E94CF017C0180919D08892809F0B6
:1014800086C081112DC00E94AF02609399087093AD
:101490009A0880939B0890939C0850929D08C114D1
:1014A000D10481F48091020290910302019751F4DA
:1014B0008FEE97E00E94C00562E370E080E090E06C
:1014C0000E947C02E114F10409F0F9CE809100023F
:1014D00090910102019709F0F2CE83E098E0E7CE07
:1014E0000E94AF022091990830919A0840919B0880
:1014F00050919C08621B730B840B950B683B7B40DF
:1015000081059105C8F00E94AF0260939508709321
:101510009608809397089093980810929F081092CD
:101520009E0810929D0888EA97E00E94C00586ED0B
:1015300096E00E94C005B3CF0E94AF0220919508AB
:10154000309196084091970850919808621B730B50
:10155000840B950B683B7B408105910508F49FCF78
:101560000E94AF0260939508709396088093970845
:101570009093980810939F0800939E0810929D08DE
:101580008FEB97E00E94C0058EEC97E0D2CF8823C6
:1015900009F485CF10929D0882CFEE0FFF1F881FA0
:0E15A0008BBF0790F691E02D1994F894FFCFC1
:1015AE0001000100280029002A002B002C002D002C
:1015BE002E002F001E001F002000210022002300FD
:1015CE0024002500000000010100000000010101BF
:1015DE0001010101000001010101010101000000F2
:1015EE0001010101010100000000000100000000E6
:1015FE0000000000000000000000000101010101D8
:10160E0001000001010101010101000001000000C3
:10161E0000000001000101010101010100000001B3
:10162E0001010101010000000000010101010000A3
:10163E000000010101010101000000000000000096
:10164E000000010101010101010000000101010181
:10165E000101000000000000000000000100000079
:10166E000000000100010000000000000100010068
:10167E00000000000001000000000100000000005A
:10168E000101010101010101000100000000000043
:10169E000100010000000000000100010000000038
:1016AE000000010001000000000000010001000028
:1016BE000000000001000000010000000001000019
:1016CE000000000000000100010101010101010103
:1016DE0000010000000000000100010100000000F8
:1016EE0001010000000101000000000100000000E7
:1016FE0000000100010000000000000100010000D8
:10170E0000000000010000000001000000000001C8
:10171E0001010101010101000100000000000000B3
:10172E0000010000000000000100010000000000A8
:10173E000001000100000000000001000100000097
:10174E000000000100000001000000000100000088
:10175E000000000000010001010101010101010072
:10176E000100000000000001000100000000000167
:10177E000100010100000000000001000000000057
:10178E000001000100000000000001000100000047
:10179E000000000100000000010000000000000039
:1017AE00000000000000000100000000000000002A
:1017BE000100000000000001000100000000000018
:1017CE000100010000000000000100010000000007
:1017DE0000000100000001000000000100000000F8
:1017EE0000000000010000000000000000000001E9
:1017FE0001010101010100000000000000000101D3
:10180E0001010000000000000001010101010101C1
:10181E0000000101010101010100000101010101AE
:10182E0001010100000000010000000000010101A3
:10183E000101010101000100000000010101000190
:10184E000101010101010000010000000000000182
:10185E000001010101010101000001000000000072
:10186E000001000000010000000001000000000067
:10187E000000000100010101010101010100010050
:10188E000000000000010000000000000101000146
:10189E000100000000000100010000000000000037
:1018AE000001000000010100000001000000000026
:1018BE000001000000000100000000000101010114
:1018CE000101010100010000000000000100010003
:1018DE0000000101000000010000000000000100F6
:1018EE0001000000000000000001000000000000E8
:1018FE0001000000010000000001000000000000D7
:10190E0000000100010101010101010100010000BF
:10191E0000000000010000000001010000000101B4
:10192E0000000000010100010000000000000000A6
:10193E000100000000010100000100000000000095
:10194E000100000000010000000000000000000087
:10195E000000000001000000000000010001000076
:10196E000000010100000100000000000001000164
:10197E000000000000000000010000000000000157
:10198E000000000100000000010000000000000047
:10199E000001000000000000000000000100000037
:1019AE000000000100000000000000000000010126
:1019BE000101010100000100000000000000000113
:1019CE000000000000010100010000000000000105
:1019DE0000000000010000000000000000000000F8
:1019EE0000000000010101010101000001000000E2
:1019FE0000000101000001010101010100000100D0
:101A0E0000000000000000000101010101010000C2
:101A1E0000000001010101000000000000000000B4
:101A2E0001000000000000000000000101010101A2
:101A3E000101000000000001010000000000000094
:101A4E005103BB02E8029E031903F7020B030D0AB2
:101A5E0000494E495420627574746F6E207761731D
:101A6E00206368616E67656420746F2067616D65C1
:101A7E00206D6F646500427574746F6E204D6964DD
:101A8E00646C652068656C6420666F722033207309
:101A9E0065636F6E6473004368616E67652074687A
:101AAE0065206D6F7665206F6620746865206C6F9B
:101ABE006F7020746578742066726F6D206C656629
:101ACE007420746F207269676874004368616E6772
:101ADE006520746865206D6F7665206F662074686A
:101AEE0065206C6F6F7020746578742066726F6DF0
:101AFE0020726967687420746F206C656674004983
:101B0E004E495420627574746F6E20776173206332
:101B1E0068616E67656420746F20636F6E666967B7
:101B2E007572617465206D6F6465004D4F5645206A
:101B3E00544F204C45465421004D4F564520544F8E
:101B4E0020524947485421005448452047414D45AD
:101B5E00205741532043414E43454C4544210052AA
:101B6E004553554D494E472047414D45210042753D
:101B7E0074746F6E204D6964646C652068656C6466
:101B8E0020666F722032207365636F6E647300532C
:101B9E0045452052454D41494E494E47204C4946F8
:101BAE004553004348414E474520564F4C554D45F1
:021BBE00000025
:00000001FF
