:100000000C9435010C9466010C9466010C94660105
:100010000C9466010C9466010C9466010C946601C4
:100020000C9466010C9466010C9466010C946601B4
:100030000C9466010C9466010C9466010C946601A4
:100040000C9466010C9466010C9466010C94660194
:100050000C9466010C9466010C9466010C942605C0
:100060000C9466010C949A050C9470050C9466012E
:100070000C9466010C9466010C9466010C94660164
:100080000C9466010C9466010C9466010C94660154
:100090000C9466010C9466010C9466010C94660144
:1000A0000C9466010C9466010C9466010C94660134
:1000B0000C9466010C9466010C9466010C94660124
:1000C0000C9466010C9466010C9466010C94660114
:1000D0000C9466010C9466010C9466010C94660104
:1000E0000C9466010C94C1010C94C5010C94D005CC
:1000F0000C94FC020C94C9010C94B1010C94BB014A
:100100000C949E020C94DD010C94CB020C94AA0179
:100110000C94DA020C94EE020C94A6010C94A20149
:100120000C94B7010C9434030C94D7010C94CF01B8
:100130000C9481030C94AE010C94E1010C94D30156
:100140000C949C010C94DC01000021002400270089
:100150002A002D00300033000101000004010701D6
:100160000A0100002200250028002B002E0031008B
:10017000340002010000050108010B01000020000D
:100180002300260029002C002F003200000100006F
:10019000030106010901050505050705080808080A
:1001A000020202020A0A080804040404010101010F
:1001B000010101010303030303030303040707070A
:1001C0000C0C0C0C0C0C0C0C0202020206060606AF
:1001D000060606060B0B0B0B0B0B0B0B010210207C
:1001E000200808102040102040800201020108046D
:1001F0000201010204081020408080402010080401
:100200000201800402018040201008040201080459
:10021000020101020408102040800102040810209D
:10022000408000000A0B02090C0D0E0807030401B0
:1002300000000000000000000000000000000000BE
:10024000000000000000000000000000000012118B
:10025000100000000000000000000000000000008E
:100260000000000000000000D00511241FBECFEFE9
:10027000D1E2DEBFCDBF00E00CBF18E0A0E0B2E0ED
:10028000E8EDF5E100E00BBF02C007900D92A2314E
:10029000B107D9F729E0A2E1B8E001C01D92A73C5F
:1002A000B207E1F711E0C5E3D1E000E006C0219715
:1002B0000109802FFE010E94DB0AC433D10780E0D0
:1002C0000807A9F70E94BF060C94EA0A0C940000E4
:1002D00080917B00877F80937B0080E480937C000B
:1002E00080917A00806480937A0080917A0086FD04
:1002F000FCCF8091780090917900089581508231EF
:1003000008F05AC0E82FF0E08827E657FE4F8F4FDD
:100310000C94DB0AAA01AE019C01A201A601DC013A
:10032000B101B701BB01C101C501C901CF01D301B1
:10033000DC01D701DD01E101809180008F7780939E
:1003400080000895809180008F7DF9CF809180009A
:10035000877FF5CF84B58F7784BD089584B58F7D71
:10036000FBCF8091B0008F778093B000089580918B
:10037000B0008F7DF9CF809190008F7780939000AF
:100380000895809190008F7DF9CF80919000877FB4
:10039000F5CF8091A0008F778093A0000895809181
:1003A000A0008F7DF9CF8091A000877FF5CF80914D
:1003B00020018F77809320010895809120018F7D07
:1003C000F9CF80912001877FF5CFCF93DF93282F3E
:1003D00030E0F901EE5DFD4F8491F901E452FE4FEA
:1003E000D491F901EA56FE4FC491CC23A1F08111BA
:1003F0000E947E01EC2FF0E0EE0FFF1FE458FE4F4D
:10040000A591B491EC91ED2381E090E009F480E0B6
:10041000DF91CF91089580E090E0FACF1F93CF93C2
:10042000DF93282F30E0F901EE5DFD4F8491F90153
:10043000E452FE4FD491F901EA56FE4FC491CC2309
:10044000A9F0162F81110E947E01EC2FF0E0EE0F33
:10045000FF1FEE59FE4FA591B4918FB7F894EC9120
:10046000111108C0D095DE23DC938FBFDF91CF91AF
:100470001F910895DE2BF8CFCF93DF9390E0FC011E
:10048000E452FE4F24918A569E4FFC0184918823AA
:10049000D1F090E0880F991FFC01E85BFE4FA59119
:1004A000B491FC01EE59FE4FC591D491623071F4C4
:1004B0009FB7F8943C91822F809583238C93E88199
:1004C0002E2B28839FBFDF91CF9108958FB7F8948B
:1004D000EC912E2B2C938FBFF6CF3FB7F8948091E1
:1004E000A4089091A508A091A608B091A70826B5E8
:1004F000A89B05C02F3F19F00196A11DB11D3FBF5C
:10050000BA2FA92F982F8827BC01CD01620F711D2A
:10051000811D911D42E0660F771F881F991F4A9524
:10052000D1F708952FB7F8946091A0087091A108B1
:100530008091A2089091A3082FBF0895AF92BF9217
:10054000CF92DF92EF92FF920F931F93CF93DF939F
:100550006C017B018B01040F151FEB015E01AE18CE
:10056000BF08C017D10759F06991D601ED91FC91F0
:100570000190F081E02DC6011995892B79F7C5010D
:10058000DF91CF911F910F91FF90EF90DF90CF906F
:10059000BF90AF900895FC01538D448D252F30E01E
:1005A000842F90E0821B930B541710F0CF96089580
:1005B00001970895FC01918D828D981761F0A28DAD
:1005C000AE0FBF2FB11D5D968C91928D9F5F9F7373
:1005D000928F90E008958FEF9FEF0895FC01918D29
:1005E000828D981731F0828DE80FF11D858D90E096
:1005F00008958FEF9FEF0895FC01918D228D892F33
:1006000090E0805C9F4F821B91098F73992708951A
:1006100088EA98E00E94FC0221E0892B09F420E09E
:10062000822F0895FC01A48DA80FB92FB11DA35AE4
:10063000BF4F2C91848D90E001968F739927848F02
:10064000A689B7892C93A089B1898C918370806425
:100650008C93938D848D981306C00288F389E02DC6
:1006600080818F7D80830895EF92FF920F931F9377
:10067000CF93DF93EC0181E0888F9B8D8C8D981355
:100680001AC0E889F989808185FF15C09FB7F89461
:10069000EE89FF896083E889F989808183708064AD
:1006A00080839FBF81E090E0DF91CF911F910F91F8
:1006B000FF90EF900895F62E0B8D10E00F5F1F4F07
:1006C0000F731127E02E8C8D8E110CC00FB607FC16
:1006D000FACFE889F989808185FFF5CFCE010E94A4
:1006E0001203F1CFEB8DEC0FFD2FF11DE35AFF4FFD
:1006F000F0829FB7F8940B8FEA89FB898081806232
:10070000CFCFCF93DF93EC01888D8823B9F0AA89EE
:10071000BB89E889F9898C9185FD03C0808186FDBC
:100720000DC00FB607FCF7CF8C9185FFF2CF80810B
:1007300085FFEDCFCE010E941203E9CFDF91CF916B
:10074000089580E090E0892B29F00E940803811130
:100750000E94000080E090E0892B49F080E090E06A
:10076000892B29F00E94000081110E94000080E086
:1007700090E0892B49F080E090E0892B29F00E94DD
:10078000000081110E94000080E090E0892B49F078
:1007900080E090E0892B29F00E94000081110C94E8
:1007A00000000895CF93DF93A0911208B091130831
:1007B000AD014C5D5D4F25E138E090E080E0E9015E
:1007C000C80FD91FBC016A0F7B1FFA01E80FF91F80
:1007D0006F3871052CF0FC01EF58F109E40FF51F9B
:1007E0006081688301968031910549F741575F4FD9
:1007F000205F3F4F88E025393807F9F6DF91CF9128
:1008000008950E94D20380911208909113080196D6
:100810008E38910529F0909313088093120808955B
:10082000109213081092120808954F925F926F92DF
:100830007F928F929F92AF92BF92CF92DF92EF9270
:10084000FF920F931F93CF93DF931F921F92CDB709
:10085000DEB78C0149832A83660F771FF801EA5AB5
:10086000FF4FE080F180EE0CFF1CF801CF01801BF0
:10087000910B8E159F0514F41192F8CF8981F80120
:10088000E60FF71F81838A818083680184E5C80EA3
:10089000D11C60E0F60180810E940E025801F2E551
:1008A000AF0EB11C480180E5880E911C1E141F0478
:1008B0000CF5E1E0EE1AF108F801EE0DFF1D608085
:1008C000F5015080F401408088E0782E662D661F87
:1008D0006627661F842D0E940E02660C61E0852D3E
:1008E0000E940E0260E0852D0E940E027A94711023
:1008F000EDCFDCCF61E0F60180810F900F90DF91AA
:10090000CF911F910F91FF90EF90DF90CF90BF900C
:10091000AF909F908F907F906F905F904F900C94CE
:100920000E02CF92DF92EF92FF921F93CF93DF934D
:100930007C016B01EB0183E0CC0FDD1F8A95E1F7B1
:100940006096CE0DDF1D11E0199220E0412FB60117
:10095000C7010E9415041F5F1930B1F7DF91CF91D5
:100960001F91FF90EF90DF90CF9008950F931F930A
:10097000CF93DF930091490910914A09E80122962B
:100980000E5E1F4F8881229661E00E943C0261E06A
:100990008E850E943C02C017D107A1F780914B09B8
:1009A00090914C09FC01EA5AFF4F208131811216C7
:1009B000130634F421E04CE070E060E00E9415047E
:1009C00080914B0990914C09FC01EA5AFF4F20811C
:1009D00031811216130634F428E04AE070E060E03A
:1009E0000E94150480914B0990914C09FC01EA5A30
:1009F000FF4F208131811216130644F470E060E04D
:100A0000DF91CF911F910F910C949104DF91CF91C1
:100A10001F910F910895FC0101900020E9F7319793
:100A2000AF01481B590BBC0188EA98E00C949E0268
:100A3000CF93DF930E940B05EC018EEA96E00E94B3
:100A40000B058C0F9D1FDF91CF9108951F920F9280
:100A50000FB60F9211242F933F938F939F93AF93D1
:100A6000BF938091A0089091A108A091A208B09195
:100A7000A30830919F0823E0230F2D3758F50196E6
:100A8000A11DB11D20939F088093A0089093A108F9
:100A9000A093A208B093A3088091A4089091A50800
:100AA000A091A608B091A7080196A11DB11D809341
:100AB000A4089093A508A093A608B093A708BF9197
:100AC000AF919F918F913F912F910F900FBE0F90FB
:100AD0001F90189526E8230F0296A11DB11DD2CFB5
:100AE0001F920F920FB60F9211240BB60F922F93F5
:100AF0003F934F935F936F937F938F939F93AF93A6
:100B0000BF93EF93FF9388EA98E00E941203FF914E
:100B1000EF91BF91AF919F918F917F916F915F9175
:100B20004F913F912F910F900BBE0F900FBE0F90E2
:100B30001F9018951F920F920FB60F9211240BB6AB
:100B40000F922F938F939F93EF93FF93E091B808A9
:100B5000F091B9088081E091BE08F091BF0882FD54
:100B60001DC090818091C1088F5F8F732091C20852
:100B7000821741F0E091C108F0E0E855F74F958FFA
:100B80008093C108FF91EF919F918F912F910F90CA
:100B90000BBE0F900FBE0F901F9018958081F2CF63
:100BA000CF93DF931092AB081092AA0888EE93E0DF
:100BB000A0E0B0E08093AC089093AD08A093AE089D
:100BC000B093AF0880EA96E09093A9088093A808B4
:100BD00085EC90E09093B5088093B40884EC90E0A5
:100BE0009093B7088093B60880EC90E09093B90892
:100BF0008093B80881EC90E09093BB088093BA088A
:100C000082EC90E09093BD088093BC0886EC90E065
:100C10009093BF088093BE081092C1081092C2083A
:100C20001092C3081092C40881E090E09093A60946
:100C30008093A509E4E1F2E0A7EAB9E0C4E0D2E0DC
:100C4000819191918D939D93899199911F969C93F8
:100C50008E931E9782E0E432F80791F7CBE0D0E064
:100C6000D0939E09C0939D098DE090E09093A009D8
:100C700080939F098AE090E09093A2098093A10954
:100C800081E090E09093A4098093A30961E08BE058
:100C90000E943C0261E080919F090E943C0261E059
:100CA0008091A1090E943C0261E08091A1090E940B
:100CB0000E02D0939E09C0939D09EDE5F9E08DE900
:100CC00099E011928E179F07E1F7D0E0C0E0809184
:100CD000A3099091A409C817D907C4F520E04FE0F3
:100CE000BE018DE499E00E9415048091A3099091C2
:100CF000A409C817D9073CF427E04BE0BE018DE4F6
:100D000099E00E94150420E049E0BE018DE499E0DD
:100D10000E9415048091A3099091A409C817D907CE
:100D20002CF4BE018DE499E00E9491048091A30906
:100D30009091A409C817D9073CF420E04CE0BE010B
:100D40008DE499E00E9415042196C1CF85EA99E0CF
:100D500090934A09809349098DE499E090934C0956
:100D600080934B090E949202609345097093460953
:100D70008093470990934809DF91CF910895CF93CD
:100D8000DF93CDB7DEB7C658D1090FB6F894DEBFF2
:100D90000FBECDBF789484B5826084BD84B5816078
:100DA00084BD85B5826085BD85B5816085BD809136
:100DB0006E00816080936E001092810080918100AE
:100DC00082608093810080918100816080938100A6
:100DD000809180008160809380008091B100846068
:100DE0008093B1008091B00081608093B0008091C9
:100DF0009100826080939100809191008160809346
:100E00009100809190008160809390008091A1007A
:100E100082608093A1008091A10081608093A100F5
:100E20008091A00081608093A00080912101826068
:100E30008093210180912101816080932101809123
:100E4000200181608093200180917A0084608093EA
:100E50007A0080917A00826080937A0080917A0093
:100E6000816080937A0080917A00806880937A0014
:100E70001092C100E091B808F091B90882E0808337
:100E8000E091B408F091B5081082E091B608F091B5
:100E9000B7088FEC80831092C008E091BC08F091F5
:100EA000BD0886E08083E091BA08F091BB0880819C
:100EB00080618083E091BA08F091BB0880818860EE
:100EC0008083E091BA08F091BB08808180688083BC
:100ED000E091BA08F091BB0880818F7D808362E049
:100EE00085E00E943C0262E086E00E943C0262E0F3
:100EF00087E00E943C020E94B6040E9401049E0109
:100F00002F573F4FCF57DF4F39832883C158D040E9
:100F10008091990890919A08019709F4D4C186E0CC
:100F20000E94E501892B09F0E3C00E949202009122
:100F30009B0810919C0820919D0830919E08601B91
:100F4000710B820B930B683B7B4081059105D0F0C0
:100F50000E94920260939B0870939C0880939D0866
:100F600090939E0841E050E050939A08409399086E
:100F700081EB96E00E94180586ED96E00E94180528
:100F80001092140885E00E94E501892B61F480919C
:100F9000020290910302019731F41092140887EF36
:100FA00096E00E94180587E00E94E501892B69F40C
:100FB0008091000290910102019739F451E0509321
:100FC00014088BE297E00E94180585E00E94E50175
:100FD000909303028093020286E00E94E50187E07D
:100FE0000E94E501909301028093000265E178E0A0
:100FF0006E0181E4C80ED11CFE0131961F01AF01C4
:101000009601FB0190E080E01191D901A80FB91F72
:101010001C93DA01A80FB91F17811C930196883021
:10102000910591F7605F7F4F285F3F4F485F5F4FAB
:10103000CF57DF4F88819981C158D0402817390791
:1010400001F70091490910914A09F8017096CD57AE
:10105000DF4FF983E883C358D040780198012E5DB3
:101060003F4FCB57DF4F39832883C558D04060E0CE
:10107000F70182810E940E024601F8E08F0E911C5A
:101080005801F60181916F01882329F061E0F50193
:1010900082890E940E02F2E0AF0EB11C8C149D04F6
:1010A00081F7F80180809180092C000CAA08BB0808
:1010B0000E946D022B013C0181149104A104B10432
:1010C00011F10E946D026419750986099709683E3D
:1010D00073408105910580F3F1E08F1A9108A10812
:1010E000B10828EE420E23E0521E611C711CE4CFB1
:1010F0000E94920260939B0870939C0880939D08C5
:1011000090939E083FCF61E0F70182810E940E021A
:101110005801F2E1AF0EB11CF5018081F2E0AF0E93
:10112000B11C60E00E940E02CB57DF4F288139814D
:10113000C558D0402A153B0579F732E0E30EF11C83
:10114000CD57DF4F48815981C358D0404E155F05B8
:1011500009F08DCF10E000E0F12CE12CDD24D394D8
:10116000D00E80914B0990914C09FC01EA5AFF4F37
:101170002081318112161306DCF420E830E00E2CB9
:1011800002C0359527950A94E2F7FC01E00FF11FA4
:101190004089D101AE0DBF1D5C91552309F451C0AA
:1011A000242B208B20894D2D70E060E00E941504D7
:1011B0005FEFE51AF50A88E0E816F10491F60F5F93
:1011C0001F4F98E0290E311C0830110529F6C090F8
:1011D0004509D0904609E0904709F0904809809170
:1011E0001408811131C00E9492029B01AC012C199C
:1011F0003D094E095F0969017A010E9468012CE3EB
:1012000030E0DC010E94E30A2FEF30E040E050E0E4
:101210000E948B0A285D3F4F4F4F5F4F2C153D05B5
:101220004E055F0508F074CE0E9492026093450956
:101230007093460980934709909348090E940104DE
:1012400067CE20952423ADCF0E9492029B01AC0172
:101250002C193D094E095F0969017A010E94680154
:101260002CE330E0DC010E94E30A2FEF30E040E0A5
:1012700050E00E948B0A285D3F4F4F4F5F4F2C1567
:101280003D054E055F0508F043CE0E949202609333
:1012900045097093460980934709909348090E9435
:1012A000D2038091120890911308019728F090932F
:1012B0001308809312082CCE4EE850E05093130888
:1012C0004093120825CE0E94B60486E00E94E501F4
:1012D000892B09F015C10E94920200919B08109180
:1012E0009C0820919D0830919E08601B710B820B19
:1012F000930B683B7B408105910508F4B0C00E94C8
:10130000920260939B0870939C0880939D08909331
:101310009E0882E090E090939A08809399088FE568
:1013200097E00E94180586ED96E00E94180586E079
:101330000E94E501892B09F063C00E9492024B01D3
:101340005C018092950890929608A0929708B092BE
:10135000980886E00E94E501892BD9F30E94920249
:101360006B017C01AC019B01281939094A095B0911
:1013700019A28E010F5D1F4FCA01B9012AE030E0AA
:1013800040E050E00E94AA0A605DF80162938F017C
:10139000211531054105510579F7309719F0CF0135
:1013A0000E940B058EEA96E00E940B05809195083D
:1013B00090919608A0919708B0919808C81AD90AF8
:1013C000EA0AFB0AF8EBCF16FBE0DF06E104F104C2
:1013D00008F477C00E94920260939B0870939C0867
:1013E00080939D0890939E0810929A0810929908F5
:1013F0008BE897E00E94180586ED96E00E9418059C
:1014000085E00E94E501892B51F4809102029091C0
:101410000302019721F482ED97E00E94180587E00E
:101420000E94E501892B51F4809100029091010204
:10143000019721F486EE97E00E94180585E00E944E
:10144000E501909303028093020286E00E94E50189
:1014500087E00E94E501909301028093000285E0FD
:101460000E94E501892B51F48091020290910302C0
:10147000019721F484EF97E00E94180587E00E940D
:10148000E501892B51F480910002909101020197AE
:1014900021F482E098E00E94180585E00E94E501B1
:1014A000909303028093020286E00E94E50187E0A8
:1014B0000E94E50190930102809300020E94A10323
:1014C00027CD20EDC21627E0D206E104F10408F48E
:1014D00097CF0E94920260939B0870939C08809320
:1014E0009D0890939E0841E050E050939A084093E5
:1014F000990882EA97E00E94180581EB97E07ECF79
:101500000E94920260939B0870939C0880939D08B0
:1015100090939E08A4CF052E97FB1EF400940E9482
:10152000A20A57FD07D00E94AA0A07FC03D04EF476
:101530000C94A20A50954095309521953F4F4F4FFE
:101540005F4F089590958095709561957F4F8F4F6F
:101550009F4F0895A1E21A2EAA1BBB1BFD010DC0CF
:10156000AA1FBB1FEE1FFF1FA217B307E407F50753
:1015700020F0A21BB30BE40BF50B661F771F881F2F
:10158000991F1A9469F760957095809590959B01C5
:10159000AC01BD01CF010895A29FB001B39FC0016E
:1015A000A39F700D811D1124911DB29F700D811D8F
:1015B0001124911D0895EE0FFF1F881F8BBF079008
:1015C000F691E02D19940E94CC0AB7FF0895821B72
:0815D000930B0895F894FFCF7E
:1015D80001000100280029002A002B002C002D0002
:1015E8002E002F001E001F002000210022002300D3
:1015F8002400250000000001010000000001010195
:1016080001010101000001010101010101000000C7
:1016180001010101010100000000000100000000BB
:1016280000000000000000000000000101010101AD
:101638000100000101010101010100000100000099
:101648000000000100010101010101010000000189
:101658000101010101000000000001010101000079
:10166800000001010101010100000000000000006C
:101678000000010101010101010000000101010157
:10168800010100000000000000000000010000004F
:10169800000000010001000000000000010001003E
:1016A8000000000000010000000001000000000030
:1016B8000101010101010101000100000000000019
:1016C800010001000000000000010001000000000E
:1016D80000000100010000000000000100010000FE
:1016E80000000000010000000100000000010000EF
:1016F80000000000000001000101010101010101D9
:1017080000010000000000000100010100000000CD
:1017180001010000000101000000000100000000BC
:1017280000000100010000000000000100010000AD
:10173800000000000100000000010000000000019E
:101748000101010101010100010000000000000089
:10175800000100000000000001000100000000007E
:10176800000100010000000000000100010000006D
:10177800000000010000000100000000010000005E
:101788000000000000010001010101010101010048
:10179800010000000000000100010000000000013D
:1017A800010001010000000000000100000000002D
:1017B800000100010000000000000100010000001D
:1017C800000000010000000001000000000000000F
:1017D8000000000000000001000000000000000000
:1017E80001000000000000010001000000000000EE
:1017F80001000100000000000001000100000000DD
:1018080000000100000001000000000100000000CD
:1018180000000000010000000000000000000001BE
:1018280001010101010100000000000000000101A8
:101838000101000000000000000101010101010197
:101848000000010101010101010000010101010184
:101858000101010000000001000000000001010179
:101868000101010101000100000000010101000166
:101878000101010101010000010000000000000158
:101888000001010101010101000001000000000048
:10189800000100000001000000000100000000003D
:1018A8000000000100010101010101010100010026
:1018B800000000000001000000000000010100011C
:1018C800010000000000010001000000000000000D
:1018D80000010000000101000000010000000000FC
:1018E80000010000000001000000000001010101EA
:1018F80001010101000100000000000001000100D9
:1019080000000101000000010000000000000100CB
:1019180001000000000000000001000000000000BD
:1019280001000000010000000001000000000000AC
:101938000000010001010101010101010001000095
:10194800000000000100000000010100000001018A
:10195800000000000101000100000000000000007C
:10196800010000000001010000010000000000006B
:10197800010000000001000000000000000000005D
:10198800000000000100000000000001000100004C
:10199800000001010000010000000000000100013A
:1019A800000000000000000001000000000000012D
:1019B800000000010000000001000000000000001D
:1019C800000100000000000000000000010000000D
:1019D80000000001000000000000000000000101FC
:1019E80001010101000001000000000000000001E9
:1019F80000000000000101000100000000000001DB
:101A080000000000010000000000000000000000CD
:101A180000000000010101010101000001000000B7
:101A280000000101000001010101010100000100A5
:101A38000000000000000000010101010101000098
:101A4800000000010101010000000000000000008A
:101A58000100000000000000000000010101010178
:101A6800010100000000000101000000000000006A
:101A780034039E02CB028103FC02DA02EE020D0A55
:101A880000494E495420627574746F6E20776173F3
:101A9800206368616E67656420746F2067616D6597
:101AA800206D6F646500427574746F6E204D6964B3
:101AB800646C652068656C6420666F7220332073DF
:101AC80065636F6E6473004368616E676520746850
:101AD80065206D6F7665206F6620746865206C6F71
:101AE8006F7020746578742066726F6D206C6566FF
:101AF8007420746F207269676874004368616E6748
:101B08006520746865206D6F7665206F662074683F
:101B180065206C6F6F7020746578742066726F6DC5
:101B280020726967687420746F206C656674004958
:101B38004E495420627574746F6E20776173206308
:101B480068616E67656420746F20636F6E6669678D
:101B58007572617465206D6F64650054484520474F
:101B6800414D45205741532043414E43454C454440
:101B78002100524553554D494E472047414D452177
:101B880000427574746F6E204D6964646C652068DA
:101B9800656C6420666F722032207365636F6E64B3
:101BA80073005345452052454D41494E494E472003
:101BB8004C49464553004348414E474520564F4CF3
:101BC800554D45004D4F564520544F204C454654E1
:101BD80021004D4F564520544F2052494748542123
:021BE8000000FB
:00000001FF
