:100000000C941A010C944B010C944B010C944B0171
:100010000C944B010C944B010C944B010C944B0130
:100020000C944B010C944B010C944B010C944B0120
:100030000C944B010C944B010C944B010C944B0110
:100040000C944B010C944B010C944B010C944B0100
:100050000C944B010C944B010C944B010C941D021D
:100060000C944B010C944B010C944B010C944B01E0
:100070000C944B010C944B010C944B010C944B01D0
:100080000C944B010C944B010C944B010C944B01C0
:100090000C944B010C944B010C944B010C944B01B0
:1000A0000C944B010C944B010C944B010C944B01A0
:1000B0000C944B010C944B010C944B010C944B0190
:1000C0000C944B010C944B010C944B010C944B0180
:1000D0000C944B010C944B010C944B010C944B0170
:1000E0000C944B010C9464030C94DA010C94C2013F
:1000F0000C94CC010C94D6010C94D2010C94C80140
:100100000C94E0010C94F2010C94E8010C949C0115
:100110000C94A1010C94BB010C94EE010C94B7015A
:100120000C94E4010C94BF010C94B30100000A0B81
:1001300002090C0D0E080703040100000000000076
:1001400000000000000000000000000000000000AF
:10015000000000000000000012111000000000006C
:10016000000000000000000000000000000000008F
:10017000000000002200250028002B002E00310086
:10018000340002010000050108010B0100002100FC
:10019000240027002A002D00300033000101000058
:1001A000040107010A0105050505070508080808F7
:1001B000020202020A0A08080404040401010101FF
:1001C00001010101030303030303030304070707FA
:1001D0000C0C0C0C0C0C0C0C02020202060606069F
:1001E000060606060B0B0B0B0B0B0B0B010210206C
:1001F000200808102040102040800201020108045D
:1002000002010102040810204080804020100804F0
:100210000201800402018040201008040201080449
:10022000020101020408102040800102040810208D
:100230004080640311241FBECFEFD1E2DEBFCDBFEB
:1002400000E00CBF12E0A0E0B2E0EAE1F7E000E07D
:100250000BBF02C007900D92A036B107D9F722E07C
:10026000A0E6B2E001C01D92AB38B207E1F711E0A1
:10027000CAE1D1E000E006C021970109802FFE010C
:100280000E948303C931D10780E00807A9F70E94C3
:1002900067020C948B030C94000090E0FC01E45185
:1002A000FE4F24918A559E4FFC018491882399F03A
:1002B00090E0880F991FFC01E457FE4FA591B4917F
:1002C000FC01EE58FE4F859194918FB7F894EC9114
:1002D000E22BEC938FBF0895282F30E0F901E45D05
:1002E000FE4F9491F901E451FE4F44912A553E4F3F
:1002F000F9012491222309F435C0992311F1915079
:100300009231F8F4E92FF0E08827E657FE4F8F4F3F
:100310000C948303BB01BF019C01B301B701A10190
:10032000C201C801CC01D201D601DA01E001E40129
:10033000A101E801EE01F201809180008F778093A6
:100340008000E22FF0E0EE0FFF1FEE58FE4FA59168
:10035000B4918FB7F894EC91611148C040954E2349
:100360004C938FBF0895809180008F7DE8CF80915E
:100370008000877FE4CF84B58F7784BDE2CF84B5DA
:100380008F7DFBCF8091B0008F778093B000D9CF65
:100390008091B0008F7DF9CF809190008F7780930E
:1003A0009000CFCF809190008F7DF9CF8091900009
:1003B000877FF5CF8091A0008F778093A000C1CF79
:1003C0008091A0008F7DF9CF8091A000877FF5CF2D
:1003D000809120018F7780932001B3CF80912001FD
:1003E0008F7DF9CF80912001877FF5CF4E2BB8CF3D
:1003F0003FB7F8948091870290918802A09189027A
:10040000B0918A0226B5A89B05C02F3F19F001962E
:10041000A11DB11D3FBFBA2FA92F982F8827BC015E
:10042000CD01620F711D811D911D42E0660F771F86
:10043000881F991F4A95D1F708951F920F920FB602
:100440000F9211242F933F938F939F93AF93BF935A
:100450008091830290918402A0918502B0918602DE
:100460003091820223E0230F2D3758F50196A11D0C
:10047000B11D209382028093830290938402A09303
:100480008502B09386028091870290918802A091A4
:100490008902B0918A020196A11DB11D8093870245
:1004A00090938802A0938902B0938A02BF91AF9182
:1004B0009F918F913F912F910F900FBE0F901F90A2
:1004C000189526E8230F0296A11DB11DD2CF78946E
:1004D00084B5826084BD84B5816084BD85B5826049
:1004E00085BD85B5816085BD80916E0081608093FA
:1004F0006E00109281008091810082608093810063
:100500008091810081608093810080918000816072
:10051000809380008091B10084608093B1008091CD
:10052000B00081608093B0008091910082608093E0
:100530009100809191008160809391008091900062
:100540008160809390008091A10082608093A100DF
:100550008091A10081608093A1008091A0008160C2
:100560008093A0008091210182608093210180917D
:10057000210181608093210180912001816080931D
:10058000200180917A00846080937A0080917A00C3
:10059000826080937A0080917A00816080937A00F3
:1005A00080917A00806880937A001092C100C2E640
:1005B000D2E0888122960E944D018E850E944D01D5
:1005C00022E0C237D207A9F7C2E6D2E0888122969C
:1005D00060E00E946C0161E08E850E946C0182E007
:1005E000C237D80799F790E0A92E90E0B92EC0E263
:1005F000D2E002E612E0F80180810E5F1F4F60E05A
:100600000E946C016E01F12CE12CF60181916F01C9
:10061000882339F061E0F701E05AFD4F82890E949A
:100620006C01F2E0EF0EF11C20E1E216F10469F733
:10063000C0906002D09061020D2C000CEE08FF0803
:100640000E94F8012B013C01C114D104E104F10422
:10065000B9F00E94F8016419750986099709683E86
:1006600073408105910580F381E0C81AD108E10843
:10067000F10898EE490E93E0591E611C711CE4CFFD
:1006800061E0F801329780810E946C0182E7E82ED8
:1006900082E0F82EF7018081F2E0EF0EF11C60E0BD
:1006A0000E946C0122E8E21622E0F20699F72896F1
:1006B00082E0C036D80709F09ECFA114B10409F436
:1006C00096CF0E94000093CFCF93DF9381E090E01C
:1006D0009093610280936002E0E1F2E0A2E6B2E072
:1006E000C0E0D2E0819191918D939D9389919991F0
:1006F0001F969C938E931E9782E0E032F80791F745
:10070000DF91CF910895EE0FFF1F881F8BBF0790D9
:0A071000F691E02D1994F894FFCF44
:10071A00280029002A002B002C002D002E002F0073
:10072A001E001F00200021002200230024002500B3
:10073A0000000001010000000000000000000000AD
:10074A00000000010100000000010100000000009B
:10075A00010100000000000001010000000000018A
:10076A000101000000000101000101010101010075
:00000001FF
